{
  "_format": "hh-sol-artifact-1",
  "contractName": "RealEstate",
  "sourceName": "contracts/RealEstate.sol",
  "abi": [
    {
      "inputs": [
        {
          "internalType": "address",
          "name": "initialOwner",
          "type": "address"
        }
      ],
      "stateMutability": "nonpayable",
      "type": "constructor"
    },
    {
      "inputs": [
        {
          "internalType": "address",
          "name": "sender",
          "type": "address"
        },
        {
          "internalType": "uint256",
          "name": "tokenId",
          "type": "uint256"
        },
        {
          "internalType": "address",
          "name": "owner",
          "type": "address"
        }
      ],
      "name": "ERC721IncorrectOwner",
      "type": "error"
    },
    {
      "inputs": [
        {
          "internalType": "address",
          "name": "operator",
          "type": "address"
        },
        {
          "internalType": "uint256",
          "name": "tokenId",
          "type": "uint256"
        }
      ],
      "name": "ERC721InsufficientApproval",
      "type": "error"
    },
    {
      "inputs": [
        {
          "internalType": "address",
          "name": "approver",
          "type": "address"
        }
      ],
      "name": "ERC721InvalidApprover",
      "type": "error"
    },
    {
      "inputs": [
        {
          "internalType": "address",
          "name": "operator",
          "type": "address"
        }
      ],
      "name": "ERC721InvalidOperator",
      "type": "error"
    },
    {
      "inputs": [
        {
          "internalType": "address",
          "name": "owner",
          "type": "address"
        }
      ],
      "name": "ERC721InvalidOwner",
      "type": "error"
    },
    {
      "inputs": [
        {
          "internalType": "address",
          "name": "receiver",
          "type": "address"
        }
      ],
      "name": "ERC721InvalidReceiver",
      "type": "error"
    },
    {
      "inputs": [
        {
          "internalType": "address",
          "name": "sender",
          "type": "address"
        }
      ],
      "name": "ERC721InvalidSender",
      "type": "error"
    },
    {
      "inputs": [
        {
          "internalType": "uint256",
          "name": "tokenId",
          "type": "uint256"
        }
      ],
      "name": "ERC721NonexistentToken",
      "type": "error"
    },
    {
      "inputs": [
        {
          "internalType": "address",
          "name": "owner",
          "type": "address"
        }
      ],
      "name": "OwnableInvalidOwner",
      "type": "error"
    },
    {
      "inputs": [
        {
          "internalType": "address",
          "name": "account",
          "type": "address"
        }
      ],
      "name": "OwnableUnauthorizedAccount",
      "type": "error"
    },
    {
      "anonymous": false,
      "inputs": [
        {
          "indexed": true,
          "internalType": "address",
          "name": "owner",
          "type": "address"
        },
        {
          "indexed": true,
          "internalType": "address",
          "name": "approved",
          "type": "address"
        },
        {
          "indexed": true,
          "internalType": "uint256",
          "name": "tokenId",
          "type": "uint256"
        }
      ],
      "name": "Approval",
      "type": "event"
    },
    {
      "anonymous": false,
      "inputs": [
        {
          "indexed": true,
          "internalType": "address",
          "name": "owner",
          "type": "address"
        },
        {
          "indexed": true,
          "internalType": "address",
          "name": "operator",
          "type": "address"
        },
        {
          "indexed": false,
          "internalType": "bool",
          "name": "approved",
          "type": "bool"
        }
      ],
      "name": "ApprovalForAll",
      "type": "event"
    },
    {
      "anonymous": false,
      "inputs": [
        {
          "indexed": false,
          "internalType": "uint256",
          "name": "_fromTokenId",
          "type": "uint256"
        },
        {
          "indexed": false,
          "internalType": "uint256",
          "name": "_toTokenId",
          "type": "uint256"
        }
      ],
      "name": "BatchMetadataUpdate",
      "type": "event"
    },
    {
      "anonymous": false,
      "inputs": [
        {
          "indexed": false,
          "internalType": "uint256",
          "name": "_tokenId",
          "type": "uint256"
        }
      ],
      "name": "MetadataUpdate",
      "type": "event"
    },
    {
      "anonymous": false,
      "inputs": [
        {
          "indexed": true,
          "internalType": "address",
          "name": "previousOwner",
          "type": "address"
        },
        {
          "indexed": true,
          "internalType": "address",
          "name": "newOwner",
          "type": "address"
        }
      ],
      "name": "OwnershipTransferred",
      "type": "event"
    },
    {
      "anonymous": false,
      "inputs": [
        {
          "indexed": true,
          "internalType": "address",
          "name": "from",
          "type": "address"
        },
        {
          "indexed": true,
          "internalType": "address",
          "name": "to",
          "type": "address"
        },
        {
          "indexed": true,
          "internalType": "uint256",
          "name": "tokenId",
          "type": "uint256"
        }
      ],
      "name": "Transfer",
      "type": "event"
    },
    {
      "inputs": [
        {
          "internalType": "address",
          "name": "to",
          "type": "address"
        },
        {
          "internalType": "uint256",
          "name": "tokenId",
          "type": "uint256"
        }
      ],
      "name": "approve",
      "outputs": [],
      "stateMutability": "nonpayable",
      "type": "function"
    },
    {
      "inputs": [
        {
          "internalType": "address",
          "name": "owner",
          "type": "address"
        }
      ],
      "name": "balanceOf",
      "outputs": [
        {
          "internalType": "uint256",
          "name": "",
          "type": "uint256"
        }
      ],
      "stateMutability": "view",
      "type": "function"
    },
    {
      "inputs": [
        {
          "internalType": "uint256",
          "name": "tokenId",
          "type": "uint256"
        }
      ],
      "name": "getApproved",
      "outputs": [
        {
          "internalType": "address",
          "name": "",
          "type": "address"
        }
      ],
      "stateMutability": "view",
      "type": "function"
    },
    {
      "inputs": [
        {
          "internalType": "address",
          "name": "owner",
          "type": "address"
        },
        {
          "internalType": "address",
          "name": "operator",
          "type": "address"
        }
      ],
      "name": "isApprovedForAll",
      "outputs": [
        {
          "internalType": "bool",
          "name": "",
          "type": "bool"
        }
      ],
      "stateMutability": "view",
      "type": "function"
    },
    {
      "inputs": [
        {
          "internalType": "string",
          "name": "uri",
          "type": "string"
        }
      ],
      "name": "mint",
      "outputs": [],
      "stateMutability": "nonpayable",
      "type": "function"
    },
    {
      "inputs": [],
      "name": "name",
      "outputs": [
        {
          "internalType": "string",
          "name": "",
          "type": "string"
        }
      ],
      "stateMutability": "view",
      "type": "function"
    },
    {
      "inputs": [],
      "name": "owner",
      "outputs": [
        {
          "internalType": "address",
          "name": "",
          "type": "address"
        }
      ],
      "stateMutability": "view",
      "type": "function"
    },
    {
      "inputs": [
        {
          "internalType": "uint256",
          "name": "tokenId",
          "type": "uint256"
        }
      ],
      "name": "ownerOf",
      "outputs": [
        {
          "internalType": "address",
          "name": "",
          "type": "address"
        }
      ],
      "stateMutability": "view",
      "type": "function"
    },
    {
      "inputs": [],
      "name": "renounceOwnership",
      "outputs": [],
      "stateMutability": "nonpayable",
      "type": "function"
    },
    {
      "inputs": [
        {
          "internalType": "address",
          "name": "from",
          "type": "address"
        },
        {
          "internalType": "address",
          "name": "to",
          "type": "address"
        },
        {
          "internalType": "uint256",
          "name": "tokenId",
          "type": "uint256"
        }
      ],
      "name": "safeTransferFrom",
      "outputs": [],
      "stateMutability": "nonpayable",
      "type": "function"
    },
    {
      "inputs": [
        {
          "internalType": "address",
          "name": "from",
          "type": "address"
        },
        {
          "internalType": "address",
          "name": "to",
          "type": "address"
        },
        {
          "internalType": "uint256",
          "name": "tokenId",
          "type": "uint256"
        },
        {
          "internalType": "bytes",
          "name": "data",
          "type": "bytes"
        }
      ],
      "name": "safeTransferFrom",
      "outputs": [],
      "stateMutability": "nonpayable",
      "type": "function"
    },
    {
      "inputs": [
        {
          "internalType": "address",
          "name": "operator",
          "type": "address"
        },
        {
          "internalType": "bool",
          "name": "approved",
          "type": "bool"
        }
      ],
      "name": "setApprovalForAll",
      "outputs": [],
      "stateMutability": "nonpayable",
      "type": "function"
    },
    {
      "inputs": [
        {
          "internalType": "bytes4",
          "name": "interfaceId",
          "type": "bytes4"
        }
      ],
      "name": "supportsInterface",
      "outputs": [
        {
          "internalType": "bool",
          "name": "",
          "type": "bool"
        }
      ],
      "stateMutability": "view",
      "type": "function"
    },
    {
      "inputs": [],
      "name": "symbol",
      "outputs": [
        {
          "internalType": "string",
          "name": "",
          "type": "string"
        }
      ],
      "stateMutability": "view",
      "type": "function"
    },
    {
      "inputs": [
        {
          "internalType": "uint256",
          "name": "tokenId",
          "type": "uint256"
        }
      ],
      "name": "tokenURI",
      "outputs": [
        {
          "internalType": "string",
          "name": "",
          "type": "string"
        }
      ],
      "stateMutability": "view",
      "type": "function"
    },
    {
      "inputs": [],
      "name": "totalSupply",
      "outputs": [
        {
          "internalType": "uint256",
          "name": "",
          "type": "uint256"
        }
      ],
      "stateMutability": "view",
      "type": "function"
    },
    {
      "inputs": [
        {
          "internalType": "address",
          "name": "from",
          "type": "address"
        },
        {
          "internalType": "address",
          "name": "to",
          "type": "address"
        },
        {
          "internalType": "uint256",
          "name": "tokenId",
          "type": "uint256"
        }
      ],
      "name": "transferFrom",
      "outputs": [],
      "stateMutability": "nonpayable",
      "type": "function"
    },
    {
      "inputs": [
        {
          "internalType": "address",
          "name": "newOwner",
          "type": "address"
        }
      ],
      "name": "transferOwnership",
      "outputs": [],
      "stateMutability": "nonpayable",
      "type": "function"
    }
  ],
  "bytecode": "0x60806040523480156200001157600080fd5b5060405162002d0a38038062002d0a833981810160405281019062000037919062000288565b806040518060400160405280600a81526020017f5265616c457374617465000000000000000000000000000000000000000000008152506040518060400160405280600481526020017f5245414c000000000000000000000000000000000000000000000000000000008152508160009081620000b5919062000534565b508060019081620000c7919062000534565b505050600073ffffffffffffffffffffffffffffffffffffffff168173ffffffffffffffffffffffffffffffffffffffff16036200013f5760006040517f1e4fbdf70000000000000000000000000000000000000000000000000000000081526004016200013691906200062c565b60405180910390fd5b62000150816200015860201b60201c565b505062000649565b6000600760009054906101000a900473ffffffffffffffffffffffffffffffffffffffff16905081600760006101000a81548173ffffffffffffffffffffffffffffffffffffffff021916908373ffffffffffffffffffffffffffffffffffffffff1602179055508173ffffffffffffffffffffffffffffffffffffffff168173ffffffffffffffffffffffffffffffffffffffff167f8be0079c531659141344cd1fd0a4f28419497f9722a3daafe3b4186f6b6457e060405160405180910390a35050565b600080fd5b600073ffffffffffffffffffffffffffffffffffffffff82169050919050565b6000620002508262000223565b9050919050565b620002628162000243565b81146200026e57600080fd5b50565b600081519050620002828162000257565b92915050565b600060208284031215620002a157620002a06200021e565b5b6000620002b18482850162000271565b91505092915050565b600081519050919050565b7f4e487b7100000000000000000000000000000000000000000000000000000000600052604160045260246000fd5b7f4e487b7100000000000000000000000000000000000000000000000000000000600052602260045260246000fd5b600060028204905060018216806200033c57607f821691505b602082108103620003525762000351620002f4565b5b50919050565b60008190508160005260206000209050919050565b60006020601f8301049050919050565b600082821b905092915050565b600060088302620003bc7fffffffffffffffffffffffffffffffffffffffffffffffffffffffffffffffff826200037d565b620003c886836200037d565b95508019841693508086168417925050509392505050565b6000819050919050565b6000819050919050565b6000620004156200040f6200040984620003e0565b620003ea565b620003e0565b9050919050565b6000819050919050565b6200043183620003f4565b6200044962000440826200041c565b8484546200038a565b825550505050565b600090565b6200046062000451565b6200046d81848462000426565b505050565b5b8181101562000495576200048960008262000456565b60018101905062000473565b5050565b601f821115620004e457620004ae8162000358565b620004b9846200036d565b81016020851015620004c9578190505b620004e1620004d8856200036d565b83018262000472565b50505b505050565b600082821c905092915050565b60006200050960001984600802620004e9565b1980831691505092915050565b6000620005248383620004f6565b9150826002028217905092915050565b6200053f82620002ba565b67ffffffffffffffff8111156200055b576200055a620002c5565b5b62000567825462000323565b6200057482828562000499565b600060209050601f831160018114620005ac576000841562000597578287015190505b620005a3858262000516565b86555062000613565b601f198416620005bc8662000358565b60005b82811015620005e657848901518255600182019150602085019450602081019050620005bf565b8683101562000606578489015162000602601f891682620004f6565b8355505b6001600288020188555050505b505050505050565b620006268162000243565b82525050565b60006020820190506200064360008301846200061b565b92915050565b6126b180620006596000396000f3fe608060405234801561001057600080fd5b50600436106101165760003560e01c8063715018a6116100a2578063b88d4fde11610071578063b88d4fde146102cd578063c87b56dd146102e9578063d85d3d2714610319578063e985e9c514610335578063f2fde38b1461036557610116565b8063715018a61461026b5780638da5cb5b1461027557806395d89b4114610293578063a22cb465146102b157610116565b806318160ddd116100e957806318160ddd146101b557806323b872dd146101d357806342842e0e146101ef5780636352211e1461020b57806370a082311461023b57610116565b806301ffc9a71461011b57806306fdde031461014b578063081812fc14610169578063095ea7b314610199575b600080fd5b61013560048036038101906101309190611b1c565b610381565b6040516101429190611b64565b60405180910390f35b610153610393565b6040516101609190611c0f565b60405180910390f35b610183600480360381019061017e9190611c67565b610425565b6040516101909190611cd5565b60405180910390f35b6101b360048036038101906101ae9190611d1c565b610441565b005b6101bd610457565b6040516101ca9190611d6b565b60405180910390f35b6101ed60048036038101906101e89190611d86565b610475565b005b61020960048036038101906102049190611d86565b610577565b005b61022560048036038101906102209190611c67565b610597565b6040516102329190611cd5565b60405180910390f35b61025560048036038101906102509190611dd9565b6105a9565b6040516102629190611d6b565b60405180910390f35b610273610663565b005b61027d610677565b60405161028a9190611cd5565b60405180910390f35b61029b6106a1565b6040516102a89190611c0f565b60405180910390f35b6102cb60048036038101906102c69190611e32565b610733565b005b6102e760048036038101906102e29190611fa7565b610749565b005b61030360048036038101906102fe9190611c67565b610766565b6040516103109190611c0f565b60405180910390f35b610333600480360381019061032e91906120cb565b610778565b005b61034f600480360381019061034a9190612114565b6107b3565b60405161035c9190611b64565b60405180910390f35b61037f600480360381019061037a9190611dd9565b610847565b005b600061038c826108cd565b9050919050565b6060600080546103a290612183565b80601f01602080910402602001604051908101604052809291908181526020018280546103ce90612183565b801561041b5780601f106103f05761010080835404028352916020019161041b565b820191906000526020600020905b8154815290600101906020018083116103fe57829003601f168201915b5050505050905090565b60006104308261092e565b5061043a826109b6565b9050919050565b610453828261044e6109f3565b6109fb565b5050565b6000806008549050808061046a906121e3565b915090508091505090565b600073ffffffffffffffffffffffffffffffffffffffff168273ffffffffffffffffffffffffffffffffffffffff16036104e75760006040517f64a0ae920000000000000000000000000000000000000000000000000000000081526004016104de9190611cd5565b60405180910390fd5b60006104fb83836104f66109f3565b610a0d565b90508373ffffffffffffffffffffffffffffffffffffffff168173ffffffffffffffffffffffffffffffffffffffff1614610571578382826040517f64283d7b0000000000000000000000000000000000000000000000000000000081526004016105689392919061222b565b60405180910390fd5b50505050565b61059283838360405180602001604052806000815250610749565b505050565b60006105a28261092e565b9050919050565b60008073ffffffffffffffffffffffffffffffffffffffff168273ffffffffffffffffffffffffffffffffffffffff160361061c5760006040517f89c62b640000000000000000000000000000000000000000000000000000000081526004016106139190611cd5565b60405180910390fd5b600360008373ffffffffffffffffffffffffffffffffffffffff1673ffffffffffffffffffffffffffffffffffffffff168152602001908152602001600020549050919050565b61066b610c27565b6106756000610cae565b565b6000600760009054906101000a900473ffffffffffffffffffffffffffffffffffffffff16905090565b6060600180546106b090612183565b80601f01602080910402602001604051908101604052809291908181526020018280546106dc90612183565b80156107295780601f106106fe57610100808354040283529160200191610729565b820191906000526020600020905b81548152906001019060200180831161070c57829003601f168201915b5050505050905090565b61074561073e6109f3565b8383610d74565b5050565b610754848484610475565b61076084848484610ee3565b50505050565b60606107718261109a565b9050919050565b610780610c27565b600060086000815480929190610795906121e3565b9190505590506107a533826111ad565b6107af81836111cb565b5050565b6000600560008473ffffffffffffffffffffffffffffffffffffffff1673ffffffffffffffffffffffffffffffffffffffff16815260200190815260200160002060008373ffffffffffffffffffffffffffffffffffffffff1673ffffffffffffffffffffffffffffffffffffffff16815260200190815260200160002060009054906101000a900460ff16905092915050565b61084f610c27565b600073ffffffffffffffffffffffffffffffffffffffff168173ffffffffffffffffffffffffffffffffffffffff16036108c15760006040517f1e4fbdf70000000000000000000000000000000000000000000000000000000081526004016108b89190611cd5565b60405180910390fd5b6108ca81610cae565b50565b6000634906490660e01b7bffffffffffffffffffffffffffffffffffffffffffffffffffffffff1916827bffffffffffffffffffffffffffffffffffffffffffffffffffffffff19161480610927575061092682611227565b5b9050919050565b60008061093a83611309565b9050600073ffffffffffffffffffffffffffffffffffffffff168173ffffffffffffffffffffffffffffffffffffffff16036109ad57826040517f7e2732890000000000000000000000000000000000000000000000000000000081526004016109a49190611d6b565b60405180910390fd5b80915050919050565b60006004600083815260200190815260200160002060009054906101000a900473ffffffffffffffffffffffffffffffffffffffff169050919050565b600033905090565b610a088383836001611346565b505050565b600080610a1984611309565b9050600073ffffffffffffffffffffffffffffffffffffffff168373ffffffffffffffffffffffffffffffffffffffff1614610a5b57610a5a81848661150b565b5b600073ffffffffffffffffffffffffffffffffffffffff168173ffffffffffffffffffffffffffffffffffffffff1614610aec57610a9d600085600080611346565b6001600360008373ffffffffffffffffffffffffffffffffffffffff1673ffffffffffffffffffffffffffffffffffffffff168152602001908152602001600020600082825403925050819055505b600073ffffffffffffffffffffffffffffffffffffffff168573ffffffffffffffffffffffffffffffffffffffff1614610b6f576001600360008773ffffffffffffffffffffffffffffffffffffffff1673ffffffffffffffffffffffffffffffffffffffff168152602001908152602001600020600082825401925050819055505b846002600086815260200190815260200160002060006101000a81548173ffffffffffffffffffffffffffffffffffffffff021916908373ffffffffffffffffffffffffffffffffffffffff160217905550838573ffffffffffffffffffffffffffffffffffffffff168273ffffffffffffffffffffffffffffffffffffffff167fddf252ad1be2c89b69c2b068fc378daa952ba7f163c4a11628f55a4df523b3ef60405160405180910390a4809150509392505050565b610c2f6109f3565b73ffffffffffffffffffffffffffffffffffffffff16610c4d610677565b73ffffffffffffffffffffffffffffffffffffffff1614610cac57610c706109f3565b6040517f118cdaa7000000000000000000000000000000000000000000000000000000008152600401610ca39190611cd5565b60405180910390fd5b565b6000600760009054906101000a900473ffffffffffffffffffffffffffffffffffffffff16905081600760006101000a81548173ffffffffffffffffffffffffffffffffffffffff021916908373ffffffffffffffffffffffffffffffffffffffff1602179055508173ffffffffffffffffffffffffffffffffffffffff168173ffffffffffffffffffffffffffffffffffffffff167f8be0079c531659141344cd1fd0a4f28419497f9722a3daafe3b4186f6b6457e060405160405180910390a35050565b600073ffffffffffffffffffffffffffffffffffffffff168273ffffffffffffffffffffffffffffffffffffffff1603610de557816040517f5b08ba18000000000000000000000000000000000000000000000000000000008152600401610ddc9190611cd5565b60405180910390fd5b80600560008573ffffffffffffffffffffffffffffffffffffffff1673ffffffffffffffffffffffffffffffffffffffff16815260200190815260200160002060008473ffffffffffffffffffffffffffffffffffffffff1673ffffffffffffffffffffffffffffffffffffffff16815260200190815260200160002060006101000a81548160ff0219169083151502179055508173ffffffffffffffffffffffffffffffffffffffff168373ffffffffffffffffffffffffffffffffffffffff167f17307eab39ab6107e8899845ad3d59bd9653f200f220920489ca2b5937696c3183604051610ed69190611b64565b60405180910390a3505050565b60008373ffffffffffffffffffffffffffffffffffffffff163b1115611094578273ffffffffffffffffffffffffffffffffffffffff1663150b7a02610f276109f3565b8685856040518563ffffffff1660e01b8152600401610f4994939291906122b7565b6020604051808303816000875af1925050508015610f8557506040513d601f19601f82011682018060405250810190610f829190612318565b60015b611009573d8060008114610fb5576040519150601f19603f3d011682016040523d82523d6000602084013e610fba565b606091505b50600081510361100157836040517f64a0ae92000000000000000000000000000000000000000000000000000000008152600401610ff89190611cd5565b60405180910390fd5b805181602001fd5b63150b7a0260e01b7bffffffffffffffffffffffffffffffffffffffffffffffffffffffff1916817bffffffffffffffffffffffffffffffffffffffffffffffffffffffff19161461109257836040517f64a0ae920000000000000000000000000000000000000000000000000000000081526004016110899190611cd5565b60405180910390fd5b505b50505050565b60606110a58261092e565b5060006006600084815260200190815260200160002080546110c690612183565b80601f01602080910402602001604051908101604052809291908181526020018280546110f290612183565b801561113f5780601f106111145761010080835404028352916020019161113f565b820191906000526020600020905b81548152906001019060200180831161112257829003601f168201915b5050505050905060006111506115cf565b905060008151036111655781925050506111a8565b60008251111561119a578082604051602001611182929190612381565b604051602081830303815290604052925050506111a8565b6111a3846115e6565b925050505b919050565b6111c782826040518060200160405280600081525061164f565b5050565b806006600084815260200190815260200160002090816111eb9190612551565b507ff8e1a15aba9398e019f0b49df1a4fde98ee17ae345cb5f6b5e2c27f5033e8ce78260405161121b9190611d6b565b60405180910390a15050565b60007f80ac58cd000000000000000000000000000000000000000000000000000000007bffffffffffffffffffffffffffffffffffffffffffffffffffffffff1916827bffffffffffffffffffffffffffffffffffffffffffffffffffffffff191614806112f257507f5b5e139f000000000000000000000000000000000000000000000000000000007bffffffffffffffffffffffffffffffffffffffffffffffffffffffff1916827bffffffffffffffffffffffffffffffffffffffffffffffffffffffff1916145b8061130257506113018261166b565b5b9050919050565b60006002600083815260200190815260200160002060009054906101000a900473ffffffffffffffffffffffffffffffffffffffff169050919050565b808061137f5750600073ffffffffffffffffffffffffffffffffffffffff168273ffffffffffffffffffffffffffffffffffffffff1614155b156114b357600061138f8461092e565b9050600073ffffffffffffffffffffffffffffffffffffffff168373ffffffffffffffffffffffffffffffffffffffff16141580156113fa57508273ffffffffffffffffffffffffffffffffffffffff168173ffffffffffffffffffffffffffffffffffffffff1614155b801561140d575061140b81846107b3565b155b1561144f57826040517fa9fbf51f0000000000000000000000000000000000000000000000000000000081526004016114469190611cd5565b60405180910390fd5b81156114b157838573ffffffffffffffffffffffffffffffffffffffff168273ffffffffffffffffffffffffffffffffffffffff167f8c5be1e5ebec7d5bd14f71427d1e84f3dd0314c0f7b2291e5b200ac8c7c3b92560405160405180910390a45b505b836004600085815260200190815260200160002060006101000a81548173ffffffffffffffffffffffffffffffffffffffff021916908373ffffffffffffffffffffffffffffffffffffffff16021790555050505050565b6115168383836116d5565b6115ca57600073ffffffffffffffffffffffffffffffffffffffff168373ffffffffffffffffffffffffffffffffffffffff160361158b57806040517f7e2732890000000000000000000000000000000000000000000000000000000081526004016115829190611d6b565b60405180910390fd5b81816040517f177e802f0000000000000000000000000000000000000000000000000000000081526004016115c1929190612623565b60405180910390fd5b505050565b606060405180602001604052806000815250905090565b60606115f18261092e565b5060006115fc6115cf565b9050600081511161161c5760405180602001604052806000815250611647565b8061162684611796565b604051602001611637929190612381565b6040516020818303038152906040525b915050919050565b6116598383611864565b6116666000848484610ee3565b505050565b60007f01ffc9a7000000000000000000000000000000000000000000000000000000007bffffffffffffffffffffffffffffffffffffffffffffffffffffffff1916827bffffffffffffffffffffffffffffffffffffffffffffffffffffffff1916149050919050565b60008073ffffffffffffffffffffffffffffffffffffffff168373ffffffffffffffffffffffffffffffffffffffff161415801561178d57508273ffffffffffffffffffffffffffffffffffffffff168473ffffffffffffffffffffffffffffffffffffffff16148061174e575061174d84846107b3565b5b8061178c57508273ffffffffffffffffffffffffffffffffffffffff16611774836109b6565b73ffffffffffffffffffffffffffffffffffffffff16145b5b90509392505050565b6060600060016117a58461195d565b01905060008167ffffffffffffffff8111156117c4576117c3611e7c565b5b6040519080825280601f01601f1916602001820160405280156117f65781602001600182028036833780820191505090505b509050600082602001820190505b600115611859578080600190039150507f3031323334353637383961626364656600000000000000000000000000000000600a86061a8153600a858161184d5761184c61264c565b5b04945060008503611804575b819350505050919050565b600073ffffffffffffffffffffffffffffffffffffffff168273ffffffffffffffffffffffffffffffffffffffff16036118d65760006040517f64a0ae920000000000000000000000000000000000000000000000000000000081526004016118cd9190611cd5565b60405180910390fd5b60006118e483836000610a0d565b9050600073ffffffffffffffffffffffffffffffffffffffff168173ffffffffffffffffffffffffffffffffffffffff16146119585760006040517f73c6ac6e00000000000000000000000000000000000000000000000000000000815260040161194f9190611cd5565b60405180910390fd5b505050565b600080600090507a184f03e93ff9f4daa797ed6e38ed64bf6a1f01000000000000000083106119bb577a184f03e93ff9f4daa797ed6e38ed64bf6a1f01000000000000000083816119b1576119b061264c565b5b0492506040810190505b6d04ee2d6d415b85acef810000000083106119f8576d04ee2d6d415b85acef810000000083816119ee576119ed61264c565b5b0492506020810190505b662386f26fc100008310611a2757662386f26fc100008381611a1d57611a1c61264c565b5b0492506010810190505b6305f5e1008310611a50576305f5e1008381611a4657611a4561264c565b5b0492506008810190505b6127108310611a75576127108381611a6b57611a6a61264c565b5b0492506004810190505b60648310611a985760648381611a8e57611a8d61264c565b5b0492506002810190505b600a8310611aa7576001810190505b80915050919050565b6000604051905090565b600080fd5b600080fd5b60007fffffffff0000000000000000000000000000000000000000000000000000000082169050919050565b611af981611ac4565b8114611b0457600080fd5b50565b600081359050611b1681611af0565b92915050565b600060208284031215611b3257611b31611aba565b5b6000611b4084828501611b07565b91505092915050565b60008115159050919050565b611b5e81611b49565b82525050565b6000602082019050611b796000830184611b55565b92915050565b600081519050919050565b600082825260208201905092915050565b60005b83811015611bb9578082015181840152602081019050611b9e565b60008484015250505050565b6000601f19601f8301169050919050565b6000611be182611b7f565b611beb8185611b8a565b9350611bfb818560208601611b9b565b611c0481611bc5565b840191505092915050565b60006020820190508181036000830152611c298184611bd6565b905092915050565b6000819050919050565b611c4481611c31565b8114611c4f57600080fd5b50565b600081359050611c6181611c3b565b92915050565b600060208284031215611c7d57611c7c611aba565b5b6000611c8b84828501611c52565b91505092915050565b600073ffffffffffffffffffffffffffffffffffffffff82169050919050565b6000611cbf82611c94565b9050919050565b611ccf81611cb4565b82525050565b6000602082019050611cea6000830184611cc6565b92915050565b611cf981611cb4565b8114611d0457600080fd5b50565b600081359050611d1681611cf0565b92915050565b60008060408385031215611d3357611d32611aba565b5b6000611d4185828601611d07565b9250506020611d5285828601611c52565b9150509250929050565b611d6581611c31565b82525050565b6000602082019050611d806000830184611d5c565b92915050565b600080600060608486031215611d9f57611d9e611aba565b5b6000611dad86828701611d07565b9350506020611dbe86828701611d07565b9250506040611dcf86828701611c52565b9150509250925092565b600060208284031215611def57611dee611aba565b5b6000611dfd84828501611d07565b91505092915050565b611e0f81611b49565b8114611e1a57600080fd5b50565b600081359050611e2c81611e06565b92915050565b60008060408385031215611e4957611e48611aba565b5b6000611e5785828601611d07565b9250506020611e6885828601611e1d565b9150509250929050565b600080fd5b600080fd5b7f4e487b7100000000000000000000000000000000000000000000000000000000600052604160045260246000fd5b611eb482611bc5565b810181811067ffffffffffffffff82111715611ed357611ed2611e7c565b5b80604052505050565b6000611ee6611ab0565b9050611ef28282611eab565b919050565b600067ffffffffffffffff821115611f1257611f11611e7c565b5b611f1b82611bc5565b9050602081019050919050565b82818337600083830152505050565b6000611f4a611f4584611ef7565b611edc565b905082815260208101848484011115611f6657611f65611e77565b5b611f71848285611f28565b509392505050565b600082601f830112611f8e57611f8d611e72565b5b8135611f9e848260208601611f37565b91505092915050565b60008060008060808587031215611fc157611fc0611aba565b5b6000611fcf87828801611d07565b9450506020611fe087828801611d07565b9350506040611ff187828801611c52565b925050606085013567ffffffffffffffff81111561201257612011611abf565b5b61201e87828801611f79565b91505092959194509250565b600067ffffffffffffffff82111561204557612044611e7c565b5b61204e82611bc5565b9050602081019050919050565b600061206e6120698461202a565b611edc565b90508281526020810184848401111561208a57612089611e77565b5b612095848285611f28565b509392505050565b600082601f8301126120b2576120b1611e72565b5b81356120c284826020860161205b565b91505092915050565b6000602082840312156120e1576120e0611aba565b5b600082013567ffffffffffffffff8111156120ff576120fe611abf565b5b61210b8482850161209d565b91505092915050565b6000806040838503121561212b5761212a611aba565b5b600061213985828601611d07565b925050602061214a85828601611d07565b9150509250929050565b7f4e487b7100000000000000000000000000000000000000000000000000000000600052602260045260246000fd5b6000600282049050600182168061219b57607f821691505b6020821081036121ae576121ad612154565b5b50919050565b7f4e487b7100000000000000000000000000000000000000000000000000000000600052601160045260246000fd5b60006121ee82611c31565b91507fffffffffffffffffffffffffffffffffffffffffffffffffffffffffffffffff82036122205761221f6121b4565b5b600182019050919050565b60006060820190506122406000830186611cc6565b61224d6020830185611d5c565b61225a6040830184611cc6565b949350505050565b600081519050919050565b600082825260208201905092915050565b600061228982612262565b612293818561226d565b93506122a3818560208601611b9b565b6122ac81611bc5565b840191505092915050565b60006080820190506122cc6000830187611cc6565b6122d96020830186611cc6565b6122e66040830185611d5c565b81810360608301526122f8818461227e565b905095945050505050565b60008151905061231281611af0565b92915050565b60006020828403121561232e5761232d611aba565b5b600061233c84828501612303565b91505092915050565b600081905092915050565b600061235b82611b7f565b6123658185612345565b9350612375818560208601611b9b565b80840191505092915050565b600061238d8285612350565b91506123998284612350565b91508190509392505050565b60008190508160005260206000209050919050565b60006020601f8301049050919050565b600082821b905092915050565b6000600883026124077fffffffffffffffffffffffffffffffffffffffffffffffffffffffffffffffff826123ca565b61241186836123ca565b95508019841693508086168417925050509392505050565b6000819050919050565b600061244e61244961244484611c31565b612429565b611c31565b9050919050565b6000819050919050565b61246883612433565b61247c61247482612455565b8484546123d7565b825550505050565b600090565b612491612484565b61249c81848461245f565b505050565b5b818110156124c0576124b5600082612489565b6001810190506124a2565b5050565b601f821115612505576124d6816123a5565b6124df846123ba565b810160208510156124ee578190505b6125026124fa856123ba565b8301826124a1565b50505b505050565b600082821c905092915050565b60006125286000198460080261250a565b1980831691505092915050565b60006125418383612517565b9150826002028217905092915050565b61255a82611b7f565b67ffffffffffffffff81111561257357612572611e7c565b5b61257d8254612183565b6125888282856124c4565b600060209050601f8311600181146125bb57600084156125a9578287015190505b6125b38582612535565b86555061261b565b601f1984166125c9866123a5565b60005b828110156125f1578489015182556001820191506020850194506020810190506125cc565b8683101561260e578489015161260a601f891682612517565b8355505b6001600288020188555050505b505050505050565b60006040820190506126386000830185611cc6565b6126456020830184611d5c565b9392505050565b7f4e487b7100000000000000000000000000000000000000000000000000000000600052601260045260246000fdfea26469706673582212200b2fe02ba5cf92a7a7101cf877cc956690f94a6da52ba7c4c0c38b13b29c728f64736f6c63430008140033",
  "linkReferences": {},
  "deployedLinkReferences": {}
}